:100DBF000418FEFDFBF70A0CC0F9A4B0999282F853
:020DCF00809012
:0C0DF300EF4E6007EF1F70F81E80F52225
:100D6F00E4FDD2A67F08FE120DF3C2A67F507E00CF
:100D7F00120DF3D2A67F0E7E00120DF3A2A6E4335E
:080D8F00FD7F147E00020DF34C
:100D9700E4FC7D08EDD39400748094804017C2A6CC
:100DA700EC13FCD2A630A6034304807F087E001212
:070DB7000DF31D80DFAF0406
:010DBE002212
:020D4400AD07F9
:100D46007B08EBD39400748094804016C2A6ED1302
:100D560092A67F057E00120DF3D2A6EDC313FD1BEE
:090D660080E07F047E00020DF321
:100C8500E4FBF51C120D6F7FCC120D447F44120D51
:100C950044120D6F7FCC120D447FBE120D44120D10
:100CA50097AB07120D978F1CEB540FFF851C1DEB9F
:100CB500C4540FFBE51CC454F0F51CEB421CAC07F7
:100CC500E4120A08E4FBFA7980783D1208F8C004BA
:100CD500C005C006C007AC1CE4120A08D003D00248
:100CE500D001D000120807E4FBFA79C8784212084F
:040CF500F8020A3CBB
:100DE300758921758C4B758AFFD2AFD2A9D28C221B
:080DFF008F993099FDC2992281
:03000B00020B568F
:100B5600C0E0C0F0C083C082C0D075D000C000C065
:0D0B660001C002C003C004C005C006C007E6
:100B7300C28C758C4B758AFFD28C0517C3E517940D
:100B83000A748094804054751700120C85AB07AA31
:100B9300067C037DE8120ABD8F087C037DE8AF0362
:100BA300AE02120ABD7E007F64CFCDCFCECCCE1273
:100BB3000ABD8F097C007D64AF03AE02120ABD7EBD
:100BC300007F0ACFCDCFCECCCE120ABD8F0AAE02A4
:0B0BD300AF037C007D0A120ABD8D0BF1
:100BDE00D007D006D005D004D003D002D001D0006B
:0B0BEE00D0D0D082D083D0F0D0E03215
:100DD200759850758921758DFD758BFDD28ED2ACBB
:010DE20022EE
:03002300020CF9D3
:100CF900C0E0C0D075D000C000C004C005C006C0A7
:010D090007E2
:100D0A003098FDAF99BF3121E4FEEEFD3395E0FC4A
:100D1A00D3ED9403EC64809480500E74082EF8E6A8
:0B0D2A002430FF120DFF0E80E1C29884
:0F0D3500D007D006D005D004D000D0D0D0E03207
:080E0700120DE3120DD280FE72
:10080000020AA8E86480F8E933E83360110460F074
:10081000ED33EC337009E8FCE9FDEAFEEBFF22045E
:1008200060DED3EB9FEA9EE99DE8C2E78CF0C2F759
:1008300095F0400CE8CCF8E9CDF9EACEFAEBCFFB25
:10084000120A7385D0F05804700320D5B3E8047001
:10085000075002B2D5020AB292D5EC0460F7E4CC9C
:10086000C0E0C398F8603B94186008400DD0E0FBEE
:10087000020A8AE4FBFAC9FC8028E830E406E4C9ED
:10088000FBE4CAFCE830E305E4C9CACBFCE8540742
:100890006010F8C3E913F9EA13FAEB13FBEC13FC4D
:1008A000D8F130F52FC3E49CFCEF9BFFEE9AFEEDF0
:1008B00099FDD0E0FBEF4E4D4C701222DB03020A93
:1008C000AFEC2CFCEF33FFEE33FEED33FDED30E704
:1008D000EB020A8AEF2BFFEE3AFEED39FDD0E0FB8A
:1008E00050130BBB0003020AB2ED13FDEE13FEEF33
:0808F00013FFEC13FC020A8A5D
:1008F800EC4D6011E8497017ED33EC3304600DE4FA
:10090800FCFFFEFD22E933E8330470F8020AA8125E
:100918000A7358046009E4CC24815006285009025F
:100928000AB2284003020AAFC0E0EB4A7044B9801B
:1009380006D0E0FB020A9EEF4E701CBD8008EBFF5C
:10094800EAFEE9FD80EBE98DF0A4FEE5F00209E19D
:10095800E9CDF9EAFEEBFFEF89F0A4FCE5F0CE89DA
:10096800F0A42EFFE435F0CD89F0A42DFEE435F097
:100978008067EF4E7005BD80D780C3EF8BF0A4ACC5
:10098800F0EE8BF0A42CFCE435F0F8EF8AF0A42C00
:10099800E5F038FCE433CB8DF0A42CFCE5F03BF813
:1009A800EE8AF0A42CFCE5F038F8E433CF89F0A403
:1009B8002CFCE5F038CF3400CE89F0A42FFFE5F009
:1009C8003EFEE433C98DF0A42EFEE5F039CD8AF061
:1009D800A42FFFE5F03EFEE43DFD33D0E0FB5007D9
:1009E8000BBB000F020AB2EC2CFCEF33FFEE33FE18
:0609F800ED33FD020A8A46
:1009FE0075F020800E75F010800575F0087D007E74
:100A0E00007F003392D530D503120AF3EC33401039
:100A1E00EF33FFEE33FEED33FDEC33FCD5F0ED227C
:0E0A2E00E5F0247EA2D513CC92E7CDCEFF22B8
:100A3C00EDD2E7CD33EC3392D524814006E4FFFEB2
:100A4C00FDFC22FCE4CFCECDCC24E0501174FF8011
:100A5C00EDC3CC13CCCD13CDCE13CECF13CF0470AE
:070A6C00F030D5DE020AF3B1
:100A7300E9D2E7C933E833F892D5EDD2E7CD33ECC9
:070A830033FC5002B2D52242
:100A8A00EC30E7100FBF000C0EBE00080DBD0004CD
:100A9A000BEB6014A2D5EB13FCED92E7FD2274FF79
:100AAA00FCFDFEFF22E480F8A2D574FF13FC7D80D2
:030ABA00E480EFE6
:03000000020BF9F7
:0C0BF900787FE4F6D8FD75811D020C40E9
:100ABD00C2D5EC30E709B2D5E4C39DFDE49CFCEE54
:100ACD0030E715B2D5E4C39FFFE49EFE120B01C3C0
:100ADD00E49DFDE49CFC8003120B0130D507C3E4BB
:060AED009FFFE49EFE22C3
:0E0AF300C3E49FFFE49EFEE49DFDE49CFC2214
:100C0500020E07E493A3F8E493A34003F68001F2F0
:100C150008DFF48029E493A3F85407240CC8C333F0
:100C2500C4540F4420C8834004F456800146F6DFBF
:100C3500E4800B0102040810204080900DBFE47E83
:100C4500019360BCA3FF543F30E509541FFEE493B4
:100C5500A360010ECF54C025E060A840B8E493A37B
:100C6500FAE493A3F8E493A3C8C582C8CAC583CAA6
:100C7500F0A3C8C582C8CAC583CADFE9DEE780BE5E
:010DD1000021
:100B0100BC000BBE0029EF8DF084FFADF022E4CCD8
:100B1100F875F008EF2FFFEE33FEEC33FCEE9DECA1
:100B2100984005FCEE9DFE0FD5F0E9E4CEFD22EDE7
:100B3100F8F5F0EE8420D21CFEADF075F008EF2F31
:100B4100FFED33FD4007985006D5F0F222C398FD22
:050B51000FD5F0EA22BF
:00000001FF
