:1009130041542B43574D4F44453D320D0A0041543A
:100923002B4349504D55583D310D0A0041542B433B
:1009330049505345525645523D310D0A0041542BFF
:1009430043495053544152543D312C225443502275
:100953002C223139322E3136382E342E32222C3598
:100963003030300D0A0041542B43495053454E4417
:070973003D312C350D0A0097
:070A8200050C525332333220
:100A1000D3EF9400EE94004016E4FDEDC3941B74F4
:0F0A200080948050030D80F3EF1F70E41E80E17F
:010A2F0022A4
:080A7A008F993099FDC2992209
:100A4900120A30FF600C120A7A740129F9E43AFAA1
:030A590080EE220A
:0709EB00120A497F327E0071
:1009F200D3EF9400EE940040147D6E7C00ED1D70E8
:0D0A0200011CED4C70F7EF1F70E61E80E345
:010A0F0022C4
:0C0A6D001513151315131513151315138D
:010A7900225A
:100A5C00151315131513151315131513151315134A
:010A6C002267
:1009BB00E4FEEEC3940874809480502330A0FD12A3
:1009CB000A6D120A6D120A6DE4F50B30A003750B5C
:0F09DB000120A0FDEF25E0FFE50B42070E80D3C2
:0109EA0022EA
:10097A00C2A07F147E001209F2D2A0120A5C20A043
:10098A002F30A0FD20A0FD1209BBAD071209BBAC98
:10099A00071209BBAB071209BBAA071209BBD2A0EF
:1009AA00ED2C2B2A600A8D088C0A8B118A12F50904
:0109BA00221A
:10088C00758920758DFD758BFDC29FD29ED2AFD21E
:10089C009CD28E1209EE7BFF7A0979131209EB7A3E
:1008AC000979211209EB7A09792F1209EBD2AC12D2
:1008BC00097A85080C850A0D85110E85120F85099C
:1008CC00107F027E001209F27BFF7A097940120A2E
:1008DC00497F027E001209F27A097969120A497F6E
:1008EC00027E001209F2E4FEEEC39405748094803B
:1008FC00500C740C2EF8E6FF120A7A0E80EA7FD0A8
:07090C007E071209F280A82A
:03000000020800F3
:0C080000787FE4F6D8FD758113020847EC
:100A3000BB010689828A83E0225002E722BBFE02C4
:090A4000E32289828A83E49322F7
:10080C0002088CE493A3F8E493A34003F68001F26E
:10081C0008DFF48029E493A3F85407240CC8C333ED
:10082C00C4540F4420C8834004F456800146F6DFBC
:10083C00E4800B0102040810204080900A82E47EC0
:10084C00019360BCA3FF543F30E509541FFEE493B1
:10085C00A360010ECF54C025E060A840B8E493A378
:10086C00FAE493A3F8E493A3C8C582C8CAC583CAA3
:10087C00F0A3C8C582C8CAC583CADFE9DEE780BE5B
:010A8900006C
:00000001FF
