:0709A900050C5253323332FA
:10095600D3EF9400EE94004016E4FDEDC3941B74AF
:0F09660080948050030D80F3EF1F70E41E80E13A
:01097500225F
:0809A1008F993099FDC29922E3
:10097600D3EF9400EE940040147D6E7C00ED1D7064
:0D098600011CED4C70F7EF1F70E61E80E3C2
:010993002241
:0C09940015141514151415141514151461
:0109A0002234
:10092600E4FEEEC3940874809480502330A0FD1238
:100936000994120994120994E4F50B30A003750B7F
:0F0946000120A0FDEF25E0FFE50B42070E80D357
:01095500227F
:1008DC00C2A07F147E00120976D2A01209941209CC
:1008EC009412099412099420A02F30A0FD20A0FD91
:1008FC00120926AD07120926AC07120926AB0712FE
:10090C000926AA07120926D2A0ED2C2B2A600A8DE3
:09091C00088C0A8B118A12F509FE
:0109250022AF
:10088C00758920758DFD758BFDD28E759850D2AC07
:10089C00D2AFC299C2987F017E001209561208DCB1
:1008AC0085080C850A0D85110E85120F850910E43B
:1008BC00FEEEC3940574809480500C740C2EF8E6F4
:1008CC00FF1209A10E80EA7FD07E0712097680CD37
:03000000020800F3
:0C080000787FE4F6D8FD758114020847EB
:10080C0002088CE493A3F8E493A34003F68001F26E
:10081C0008DFF48029E493A3F85407240CC8C333ED
:10082C00C4540F4420C8834004F456800146F6DFBC
:10083C00E4800B01020408102040809009A9E47E9A
:10084C00019360BCA3FF543F30E509541FFEE493B1
:10085C00A360010ECF54C025E060A840B8E493A378
:10086C00FAE493A3F8E493A3C8C582C8CAC583CAA3
:10087C00F0A3C8C582C8CAC583CADFE9DEE780BE5B
:0109B0000046
:00000001FF
