:1008690041542B43574D4F44453D320D0A004154E5
:100879002B43494F424155443D393630300D0A002A
:1008890041542B4349504D55583D310D0A004154AF
:0F0899002B4349505345525645523D310D0A00ED
:0708DF0012091D7FE87E03F2
:1008E600D3EF9400EE940040147D6E7C00ED1D70F5
:0D08F600011CED4C70F7EF1F70E61E80E353
:0109030022D1
:08094C008F993099FDC2992238
:10091D00120904FF600C12094C740129F9E43AFA2A
:03092D0080EE2237
:1008A800758920758DFD758BFDC29FD29ED2AFD202
:1008B8009CD28E1208E27BFF7A0879691208DF7AE7
:1008C8000879771208DF7A0879891208DF7A0879B7
:0708D800971208DFD2AC22E9
:10093000C2A0C2A3C2A6E4F513F5141208A880FE53
:03002300020800D0
:10080000C0E0C0D075D000C000309856C2987409BE
:100810002514F8A699E509B42B0A0514E514700A05
:1008200005138006751300751400E514640A45135A
:100830007030F513F514E51224CE6014146015140D
:10084000601614601714601824057016C2A0801278
:10085000D2A0800EC2A3800AD2A38006C2A68002C4
:09086000D2A6D000D0D0D0E032C5
:03000000020940B2
:0C094000787FE4F6D8FD758114020930C0
:10090400BB010689828A83E0225002E722BBFE02F1
:09091400E32289828A83E4932224
:00000001FF
