:100CB40041542B43574D4F44453D320D0A00415496
:100CC4002B43494F424155443D393630300D0A00DB
:100CD40041542B4349504D55583D310D0A00415460
:100CE4002B4349505345525645523D310D0A00415C
:100CF400542B43495053544152543D312C225443B4
:100D040050222C223139322E3136382E342E3222D2
:100D14002C353030300D0A0041542B434950534593
:090D24004E443D312C340D0A004F
:0C0F0200EF4E6007EF1F70F81E80F52214
:100E6A00E4FDD2A77F08FE120F02C2A77F507E00C0
:100E7A00120F02D2A77F0E7E00120F02A2A7E4333E
:080E8A00FD7F147E00020F023F
:100E9200E4FC7D08EDD39400748094804017C2A7CF
:100EA200EC13FCD2A730A7034304807F087E001214
:070EB2000F021D80DFAF04F9
:010EB9002216
:020E3F00AD07FD
:100E41007B08EBD39400748094804016C2A7ED1305
:100E510092A77F057E00120F02D2A7EDC313FD1BDF
:090E610080E07F047E00020F0214
:100D2D00E4FBF51C120E6A7FCC120E3F7F44120EAF
:100D3D003F120E6A7FCC120E3F7FBE120E3F120E77
:100D4D0092AB07120E928F1CEB540FFF851C1DEBFF
:100D5D00C4540FFBE51CC454F0F51CEB421CAC074E
:100D6D00E4120A08E4FBFA7980783D1208F8C00411
:100D7D00C005C006C007AC1CE4120A08D003D0029F
:100D8D00D001D000120807E4FBFA79C878421208A6
:040D9D00F8020A3C12
:100EF200758921758C4B758AFFD2AFD2A9D28C220B
:070EBA00120EDF7F327E0003
:100EC100D3EF9400EE940040147D6E7C00ED1D7014
:0D0ED100011CED4C70F7EF1F70E61E80E372
:010EDE0022F1
:080F1A008F993099FDC2992264
:100EDF00120ABDFF600C120F1A740129F9E43AFAD5
:030EEF0080EE2270
:100E0800758921758DFD758BFDC29FD29ED2AFD29B
:100E18009CD28E120EBD7BFF7A0C79B4120EBA7A70
:100E28000C79C2120EBA7A0C79D4120EBA7A0C79ED
:070E3800E2120EBAD2AC2257
:100DA100C2A0C2A3C2A6E4F518F519F50CF50D12FF
:100DB1000E08120EF2E50D450C60FA7F027E00125C
:100DC1000EC17BFF7A0C79F3120EDF7F027E0012D7
:100DD1000EC17A0D791C120EDF7F027E00120EC148
:100DE100E4F51AD3E51A94037480948050107408C2
:100DF100251AF8E62430FF120F1A051A80E57FE85C
:070E01007E03120EC180AE5A
:03000B00020B6F76
:100B6F00C0E0C0F0C083C082C0D075D000C000C04C
:0D0B7F0001C002C003C004C005C006C007CD
:100B8C00C28C758C4B758AFFD28C051BC3E51B94EC
:100B9C000A748094804054751B00120D2DAB07AA6B
:100BAC00067C037DE8120AD68F087C037DE8AF0330
:100BBC00AE02120AD67E007F64CFCDCFCECCCE1241
:100BCC000AD68F097C007D64AF03AE02120AD67E72
:100BDC00007F0ACFCDCFCECCCE120AD68F0AAE0272
:0B0BEC00AF037C007D0A120AD68D0BBF
:100BF700D007D006D005D004D003D002D001D00052
:0B0C0700D0D0D082D083D0F0D0E032FB
:03002300020C12BA
:100C1200C0E0C0F0C083C082C0D075D000C0002048
:100C22009803020CA7C298740E2519F8A699E50E2E
:100C3200B42B0A0519E519700A0518800675180003
:100C4200751900E519640A4518705AF518F519E581
:100C520017248D604A14603F2441B4060050469028
:100C62000C6F75F003A4C58325F0C58373020C8154
:100C7200020C85020C89020C8D020C91020C95C2A9
:100C8200A08022D2A0801EC2A3801AD2A38016C244
:100C9200A68012D2A6800E750C00750D0180067515
:100CA2000C00750D00D000D0D0D082D083D0F0D00F
:020CB200E0322E
:10080000020AA8E86480F8E933E83360110460F074
:10081000ED33EC337009E8FCE9FDEAFEEBFF22045E
:1008200060DED3EB9FEA9EE99DE8C2E78CF0C2F759
:1008300095F0400CE8CCF8E9CDF9EACEFAEBCFFB25
:10084000120A7385D0F05804700320D5B3E8047001
:10085000075002B2D5020AB292D5EC0460F7E4CC9C
:10086000C0E0C398F8603B94186008400DD0E0FBEE
:10087000020A8AE4FBFAC9FC8028E830E406E4C9ED
:10088000FBE4CAFCE830E305E4C9CACBFCE8540742
:100890006010F8C3E913F9EA13FAEB13FBEC13FC4D
:1008A000D8F130F52FC3E49CFCEF9BFFEE9AFEEDF0
:1008B00099FDD0E0FBEF4E4D4C701222DB03020A93
:1008C000AFEC2CFCEF33FFEE33FEED33FDED30E704
:1008D000EB020A8AEF2BFFEE3AFEED39FDD0E0FB8A
:1008E00050130BBB0003020AB2ED13FDEE13FEEF33
:0808F00013FFEC13FC020A8A5D
:1008F800EC4D6011E8497017ED33EC3304600DE4FA
:10090800FCFFFEFD22E933E8330470F8020AA8125E
:100918000A7358046009E4CC24815006285009025F
:100928000AB2284003020AAFC0E0EB4A7044B9801B
:1009380006D0E0FB020A9EEF4E701CBD8008EBFF5C
:10094800EAFEE9FD80EBE98DF0A4FEE5F00209E19D
:10095800E9CDF9EAFEEBFFEF89F0A4FCE5F0CE89DA
:10096800F0A42EFFE435F0CD89F0A42DFEE435F097
:100978008067EF4E7005BD80D780C3EF8BF0A4ACC5
:10098800F0EE8BF0A42CFCE435F0F8EF8AF0A42C00
:10099800E5F038FCE433CB8DF0A42CFCE5F03BF813
:1009A800EE8AF0A42CFCE5F038F8E433CF89F0A403
:1009B8002CFCE5F038CF3400CE89F0A42FFFE5F009
:1009C8003EFEE433C98DF0A42EFEE5F039CD8AF061
:1009D800A42FFFE5F03EFEE43DFD33D0E0FB5007D9
:1009E8000BBB000F020AB2EC2CFCEF33FFEE33FE18
:0609F800ED33FD020A8A46
:1009FE0075F020800E75F010800575F0087D007E74
:100A0E00007F003392D530D503120B0CEC3340101F
:100A1E00EF33FFEE33FEED33FDEC33FCD5F0ED227C
:0E0A2E00E5F0247EA2D513CC92E7CDCEFF22B8
:100A3C00EDD2E7CD33EC3392D524814006E4FFFEB2
:100A4C00FDFC22FCE4CFCECDCC24E0501174FF8011
:100A5C00EDC3CC13CCCD13CDCE13CECF13CF0470AE
:070A6C00F030D5DE020B0C97
:100A7300E9D2E7C933E833F892D5EDD2E7CD33ECC9
:070A830033FC5002B2D52242
:100A8A00EC30E7100FBF000C0EBE00080DBD0004CD
:100A9A000BEB6014A2D5EB13FCED92E7FD2274FF79
:100AAA00FCFDFEFF22E480F8A2D574FF13FC7D80D2
:030ABA00E480EFE6
:03000000020F0EDE
:0C0F0E00787FE4F6D8FD75811D020DA16E
:100ABD00BB010689828A83E0225002E722BBFE0237
:090ACD00E32289828A83E493226A
:100AD600C2D5EC30E709B2D5E4C39DFDE49CFCEE3B
:100AE60030E715B2D5E4C39FFFE49EFE120B1AC38E
:100AF600E49DFDE49CFC8003120B1A30D507C3E489
:060B06009FFFE49EFE22A9
:0E0B0C00C3E49FFFE49EFEE49DFDE49CFC22FA
:100B1A00BC000BBE0029EF8DF084FFADF022E4CCBF
:100B2A00F875F008EF2FFFEE33FEEC33FCEE9DEC88
:100B3A00984005FCEE9DFE0FD5F0E9E4CEFD22EDCE
:100B4A00F8F5F0EE8420D21CFEADF075F008EF2F18
:100B5A00FFED33FD4007985006D5F0F222C398FD09
:050B6A000FD5F0EA22A6
:00000001FF
